{
  "contractName": "Voting",
  "abi": [
    {
      "inputs": [],
      "stateMutability": "nonpayable",
      "type": "constructor"
    },
    {
      "anonymous": false,
      "inputs": [
        {
          "indexed": true,
          "internalType": "address",
          "name": "previousOwner",
          "type": "address"
        },
        {
          "indexed": true,
          "internalType": "address",
          "name": "newOwner",
          "type": "address"
        }
      ],
      "name": "OwnershipTransferred",
      "type": "event"
    },
    {
      "anonymous": false,
      "inputs": [
        {
          "indexed": false,
          "internalType": "uint256",
          "name": "proposalId",
          "type": "uint256"
        }
      ],
      "name": "ProposalRegistered",
      "type": "event"
    },
    {
      "anonymous": false,
      "inputs": [
        {
          "indexed": false,
          "internalType": "uint256",
          "name": "date",
          "type": "uint256"
        },
        {
          "indexed": false,
          "internalType": "uint256",
          "name": "blockNumber",
          "type": "uint256"
        }
      ],
      "name": "ResetVote",
      "type": "event"
    },
    {
      "anonymous": false,
      "inputs": [
        {
          "indexed": false,
          "internalType": "address",
          "name": "voter",
          "type": "address"
        },
        {
          "indexed": false,
          "internalType": "uint256",
          "name": "proposalId",
          "type": "uint256"
        }
      ],
      "name": "Voted",
      "type": "event"
    },
    {
      "anonymous": false,
      "inputs": [
        {
          "indexed": false,
          "internalType": "address",
          "name": "voterAddress",
          "type": "address"
        }
      ],
      "name": "VoterRegistered",
      "type": "event"
    },
    {
      "anonymous": false,
      "inputs": [
        {
          "indexed": false,
          "internalType": "enum Voting.WorkflowStatus",
          "name": "previousStatus",
          "type": "uint8"
        },
        {
          "indexed": false,
          "internalType": "enum Voting.WorkflowStatus",
          "name": "newStatus",
          "type": "uint8"
        }
      ],
      "name": "WorkflowStatusChange",
      "type": "event"
    },
    {
      "inputs": [],
      "name": "owner",
      "outputs": [
        {
          "internalType": "address",
          "name": "",
          "type": "address"
        }
      ],
      "stateMutability": "view",
      "type": "function",
      "constant": true
    },
    {
      "inputs": [],
      "name": "renounceOwnership",
      "outputs": [],
      "stateMutability": "nonpayable",
      "type": "function"
    },
    {
      "inputs": [
        {
          "internalType": "address",
          "name": "newOwner",
          "type": "address"
        }
      ],
      "name": "transferOwnership",
      "outputs": [],
      "stateMutability": "nonpayable",
      "type": "function"
    },
    {
      "inputs": [],
      "name": "winningProposalID",
      "outputs": [
        {
          "internalType": "uint8",
          "name": "",
          "type": "uint8"
        }
      ],
      "stateMutability": "view",
      "type": "function",
      "constant": true
    },
    {
      "inputs": [],
      "name": "workflowStatus",
      "outputs": [
        {
          "internalType": "enum Voting.WorkflowStatus",
          "name": "",
          "type": "uint8"
        }
      ],
      "stateMutability": "view",
      "type": "function",
      "constant": true
    },
    {
      "inputs": [
        {
          "internalType": "address",
          "name": "_addr",
          "type": "address"
        }
      ],
      "name": "getVoter",
      "outputs": [
        {
          "components": [
            {
              "internalType": "bool",
              "name": "isRegistered",
              "type": "bool"
            },
            {
              "internalType": "bool",
              "name": "hasVoted",
              "type": "bool"
            },
            {
              "internalType": "uint256",
              "name": "votedProposalId",
              "type": "uint256"
            }
          ],
          "internalType": "struct Voting.Voter",
          "name": "",
          "type": "tuple"
        }
      ],
      "stateMutability": "view",
      "type": "function",
      "constant": true
    },
    {
      "inputs": [
        {
          "internalType": "uint256",
          "name": "_id",
          "type": "uint256"
        }
      ],
      "name": "getOneProposal",
      "outputs": [
        {
          "components": [
            {
              "internalType": "string",
              "name": "description",
              "type": "string"
            },
            {
              "internalType": "uint256",
              "name": "voteCount",
              "type": "uint256"
            }
          ],
          "internalType": "struct Voting.Proposal",
          "name": "",
          "type": "tuple"
        }
      ],
      "stateMutability": "view",
      "type": "function",
      "constant": true
    },
    {
      "inputs": [],
      "name": "getProposals",
      "outputs": [
        {
          "components": [
            {
              "internalType": "string",
              "name": "description",
              "type": "string"
            },
            {
              "internalType": "uint256",
              "name": "voteCount",
              "type": "uint256"
            }
          ],
          "internalType": "struct Voting.Proposal[]",
          "name": "",
          "type": "tuple[]"
        }
      ],
      "stateMutability": "view",
      "type": "function",
      "constant": true
    },
    {
      "inputs": [],
      "name": "getVoters",
      "outputs": [
        {
          "internalType": "address[]",
          "name": "",
          "type": "address[]"
        }
      ],
      "stateMutability": "view",
      "type": "function",
      "constant": true
    },
    {
      "inputs": [
        {
          "internalType": "address",
          "name": "_addr",
          "type": "address"
        }
      ],
      "name": "addVoter",
      "outputs": [],
      "stateMutability": "nonpayable",
      "type": "function"
    },
    {
      "inputs": [
        {
          "internalType": "string",
          "name": "_desc",
          "type": "string"
        }
      ],
      "name": "addProposal",
      "outputs": [],
      "stateMutability": "nonpayable",
      "type": "function"
    },
    {
      "inputs": [
        {
          "internalType": "uint256",
          "name": "_id",
          "type": "uint256"
        }
      ],
      "name": "setVote",
      "outputs": [],
      "stateMutability": "nonpayable",
      "type": "function"
    },
    {
      "inputs": [],
      "name": "startProposalsRegistering",
      "outputs": [],
      "stateMutability": "nonpayable",
      "type": "function"
    },
    {
      "inputs": [],
      "name": "endProposalsRegistering",
      "outputs": [],
      "stateMutability": "nonpayable",
      "type": "function"
    },
    {
      "inputs": [],
      "name": "startVotingSession",
      "outputs": [],
      "stateMutability": "nonpayable",
      "type": "function"
    },
    {
      "inputs": [],
      "name": "endVotingSession",
      "outputs": [],
      "stateMutability": "nonpayable",
      "type": "function"
    },
    {
      "inputs": [],
      "name": "tallyVotes",
      "outputs": [],
      "stateMutability": "nonpayable",
      "type": "function"
    },
    {
      "inputs": [],
      "name": "resetVote",
      "outputs": [],
      "stateMutability": "nonpayable",
      "type": "function"
    }
  ],
  "bytecode": "0x60806040526032600060156101000a81548160ff021916908360ff1602179055503480156200002d57600080fd5b506200004e620000426200006560201b60201c565b6200006d60201b60201c565b6200005f336200013160201b60201c565b62000619565b600033905090565b60008060009054906101000a900473ffffffffffffffffffffffffffffffffffffffff169050816000806101000a81548173ffffffffffffffffffffffffffffffffffffffff021916908373ffffffffffffffffffffffffffffffffffffffff1602179055508173ffffffffffffffffffffffffffffffffffffffff168173ffffffffffffffffffffffffffffffffffffffff167f8be0079c531659141344cd1fd0a4f28419497f9722a3daafe3b4186f6b6457e060405160405180910390a35050565b620001416200006560201b60201c565b73ffffffffffffffffffffffffffffffffffffffff1662000167620003d260201b60201c565b73ffffffffffffffffffffffffffffffffffffffff1614620001c0576040517f08c379a0000000000000000000000000000000000000000000000000000000008152600401620001b7906200045c565b60405180910390fd5b60006005811115620001d757620001d66200047e565b5b600460009054906101000a900460ff166005811115620001fc57620001fb6200047e565b5b146200023f576040517f08c379a0000000000000000000000000000000000000000000000000000000008152600401620002369062000523565b60405180910390fd5b60011515600360008373ffffffffffffffffffffffffffffffffffffffff1673ffffffffffffffffffffffffffffffffffffffff16815260200190815260200160002060000160009054906101000a900460ff16151503620002d8576040517f08c379a0000000000000000000000000000000000000000000000000000000008152600401620002cf9062000595565b60405180910390fd5b6001600360008373ffffffffffffffffffffffffffffffffffffffff1673ffffffffffffffffffffffffffffffffffffffff16815260200190815260200160002060000160006101000a81548160ff0219169083151502179055506002819080600181540180825580915050600190039060005260206000200160009091909190916101000a81548173ffffffffffffffffffffffffffffffffffffffff021916908373ffffffffffffffffffffffffffffffffffffffff1602179055507fb6be2187d059cc2a55fe29e0e503b566e1e0f8c8780096e185429350acffd3dd81604051620003c79190620005fc565b60405180910390a150565b60008060009054906101000a900473ffffffffffffffffffffffffffffffffffffffff16905090565b600082825260208201905092915050565b7f4f776e61626c653a2063616c6c6572206973206e6f7420746865206f776e6572600082015250565b600062000444602083620003fb565b915062000451826200040c565b602082019050919050565b60006020820190508181036000830152620004778162000435565b9050919050565b7f4e487b7100000000000000000000000000000000000000000000000000000000600052602160045260246000fd5b7f566f7465727320726567697374726174696f6e206973206e6f74206f70656e2060008201527f7965740000000000000000000000000000000000000000000000000000000000602082015250565b60006200050b602383620003fb565b91506200051882620004ad565b604082019050919050565b600060208201905081810360008301526200053e81620004fc565b9050919050565b7f416c726561647920726567697374657265640000000000000000000000000000600082015250565b60006200057d601283620003fb565b91506200058a8262000545565b602082019050919050565b60006020820190508181036000830152620005b0816200056e565b9050919050565b600073ffffffffffffffffffffffffffffffffffffffff82169050919050565b6000620005e482620005b7565b9050919050565b620005f681620005d7565b82525050565b6000602082019050620006136000830184620005eb565b92915050565b612f2d80620006296000396000f3fe608060405234801561001057600080fd5b50600436106101165760003560e01c8063a7bfab16116100a2578063cdd7225311610071578063cdd7225314610237578063d4f50f9814610255578063ee74c67814610285578063f2fde38b1461028f578063f4ab9adf146102ab57610116565b8063a7bfab16146101fb578063bdc0143114610205578063c7038a4e14610223578063c88af42f1461022d57610116565b806362564c48116100e957806362564c4814610167578063715018a6146101855780638da5cb5b1461018f578063a1edffa2146101ad578063a2788cce146101cb57610116565b8063230796ae1461011b5780632fdae3c514610137578063329a8cfa14610153578063378a21781461015d575b600080fd5b61013560048036038101906101309190611dea565b6102c7565b005b610151600480360381019061014c9190611f5d565b6105c3565b005b61015b61085f565b005b610165610a55565b005b61016f610c53565b60405161017c919061213c565b60405180910390f35b61018d610ddd565b005b610197610e65565b6040516101a4919061219f565b60405180910390f35b6101b5610e8e565b6040516101c29190612231565b60405180910390f35b6101e560048036038101906101e09190611dea565b610ea1565b6040516101f29190612289565b60405180910390f35b610203611008565b005b61020d611161565b60405161021a91906122c7565b60405180910390f35b61022b611174565b005b6102356112ce565b005b61023f611428565b60405161024c91906123a0565b60405180910390f35b61026f600480360381019061026a91906123ee565b611545565b60405161027c9190612478565b60405180910390f35b61028d61166d565b005b6102a960048036038101906102a491906123ee565b6117c7565b005b6102c560048036038101906102c091906123ee565b6118be565b005b600360003373ffffffffffffffffffffffffffffffffffffffff1673ffffffffffffffffffffffffffffffffffffffff16815260200190815260200160002060000160009054906101000a900460ff16610356576040517f08c379a000000000000000000000000000000000000000000000000000000000815260040161034d906124f0565b60405180910390fd5b6003600581111561036a576103696121ba565b5b600460009054906101000a900460ff16600581111561038c5761038b6121ba565b5b146103cc576040517f08c379a00000000000000000000000000000000000000000000000000000000081526004016103c390612582565b60405180910390fd5b60011515600360003373ffffffffffffffffffffffffffffffffffffffff1673ffffffffffffffffffffffffffffffffffffffff16815260200190815260200160002060000160019054906101000a900460ff16151503610462576040517f08c379a0000000000000000000000000000000000000000000000000000000008152600401610459906125ee565b60405180910390fd5b6001805490508111156104aa576040517f08c379a00000000000000000000000000000000000000000000000000000000081526004016104a19061265a565b60405180910390fd5b80600360003373ffffffffffffffffffffffffffffffffffffffff1673ffffffffffffffffffffffffffffffffffffffff168152602001908152602001600020600101819055506001600360003373ffffffffffffffffffffffffffffffffffffffff1673ffffffffffffffffffffffffffffffffffffffff16815260200190815260200160002060000160016101000a81548160ff021916908315150217905550600181815481106105605761055f61267a565b5b90600052602060002090600202016001016000815480929190610582906126d8565b91905055507f4d99b957a2bc29a30ebd96a7be8e68fe50a3c701db28a91436490b7d53870ca433826040516105b892919061272f565b60405180910390a150565b600360003373ffffffffffffffffffffffffffffffffffffffff1673ffffffffffffffffffffffffffffffffffffffff16815260200190815260200160002060000160009054906101000a900460ff16610652576040517f08c379a0000000000000000000000000000000000000000000000000000000008152600401610649906124f0565b60405180910390fd5b60016005811115610666576106656121ba565b5b600460009054906101000a900460ff166005811115610688576106876121ba565b5b146106c8576040517f08c379a00000000000000000000000000000000000000000000000000000000081526004016106bf906127a4565b60405180910390fd5b6040516020016106d7906127ea565b60405160208183030381529060405280519060200120816040516020016106fe9190612843565b6040516020818303038152906040528051906020012003610754576040517f08c379a000000000000000000000000000000000000000000000000000000000815260040161074b906128d7565b60405180910390fd5b600060159054906101000a900460ff1660ff1660018054905011156107ae576040517f08c379a00000000000000000000000000000000000000000000000000000000081526004016107a590612969565b60405180910390fd5b6107b6611c0a565b81816000018190525060018190806001815401808255809150506001900390600052602060002090600202016000909190919091506000820151816000019080519060200190610807929190611c24565b506020820151816001015550507f92e393e9b54e2f801d3ea4beb0c5e71a21cc34a5d34b77d0fb8a3aa1650dc18f600180805490506108469190612989565b60405161085391906129bd565b60405180910390a15050565b610867611b3e565b73ffffffffffffffffffffffffffffffffffffffff16610885610e65565b73ffffffffffffffffffffffffffffffffffffffff16146108db576040517f08c379a00000000000000000000000000000000000000000000000000000000081526004016108d290612a24565b60405180910390fd5b60005b6002805490508110156109ae5760036000600283815481106109035761090261267a565b5b9060005260206000200160009054906101000a900473ffffffffffffffffffffffffffffffffffffffff1673ffffffffffffffffffffffffffffffffffffffff1673ffffffffffffffffffffffffffffffffffffffff168152602001908152602001600020600080820160006101000a81549060ff02191690556000820160016101000a81549060ff02191690556001820160009055505080806109a6906126d8565b9150506108de565b50600260006109bd9190611caa565b600160006109cb9190611ccb565b60008060146101000a81548160ff021916908360ff1602179055506000600460006101000a81548160ff02191690836005811115610a0c57610a0b6121ba565b5b0217905550610a1a336118be565b7f12687eba9406e7a8de7da7479a347f886082988951131e2f5e328211b33ca05e4243604051610a4b929190612a44565b60405180910390a1565b610a5d611b3e565b73ffffffffffffffffffffffffffffffffffffffff16610a7b610e65565b73ffffffffffffffffffffffffffffffffffffffff1614610ad1576040517f08c379a0000000000000000000000000000000000000000000000000000000008152600401610ac890612a24565b60405180910390fd5b60046005811115610ae557610ae46121ba565b5b600460009054906101000a900460ff166005811115610b0757610b066121ba565b5b14610b47576040517f08c379a0000000000000000000000000000000000000000000000000000000008152600401610b3e90612adf565b60405180910390fd5b600080600090505b6001805490508160ff161015610bce5760018260ff1681548110610b7657610b7561267a565b5b90600052602060002090600202016001015460018260ff1681548110610b9f57610b9e61267a565b5b9060005260206000209060020201600101541115610bbb578091505b8080610bc690612aff565b915050610b4f565b5080600060146101000a81548160ff021916908360ff1602179055506005600460006101000a81548160ff02191690836005811115610c1057610c0f6121ba565b5b02179055507f0a97a4ee45751e2abf3e4fc8946939630b11b371ea8ae39ccdc3056e98f5cc3f60046005604051610c48929190612b28565b60405180910390a150565b6060600360003373ffffffffffffffffffffffffffffffffffffffff1673ffffffffffffffffffffffffffffffffffffffff16815260200190815260200160002060000160009054906101000a900460ff16610ce4576040517f08c379a0000000000000000000000000000000000000000000000000000000008152600401610cdb906124f0565b60405180910390fd5b6001805480602002602001604051908101604052809291908181526020016000905b82821015610dd45783829060005260206000209060020201604051806040016040529081600082018054610d3990612b80565b80601f0160208091040260200160405190810160405280929190818152602001828054610d6590612b80565b8015610db25780601f10610d8757610100808354040283529160200191610db2565b820191906000526020600020905b815481529060010190602001808311610d9557829003601f168201915b5050505050815260200160018201548152505081526020019060010190610d06565b50505050905090565b610de5611b3e565b73ffffffffffffffffffffffffffffffffffffffff16610e03610e65565b73ffffffffffffffffffffffffffffffffffffffff1614610e59576040517f08c379a0000000000000000000000000000000000000000000000000000000008152600401610e5090612a24565b60405180910390fd5b610e636000611b46565b565b60008060009054906101000a900473ffffffffffffffffffffffffffffffffffffffff16905090565b600460009054906101000a900460ff1681565b610ea9611c0a565b600360003373ffffffffffffffffffffffffffffffffffffffff1673ffffffffffffffffffffffffffffffffffffffff16815260200190815260200160002060000160009054906101000a900460ff16610f38576040517f08c379a0000000000000000000000000000000000000000000000000000000008152600401610f2f906124f0565b60405180910390fd5b60018281548110610f4c57610f4b61267a565b5b9060005260206000209060020201604051806040016040529081600082018054610f7590612b80565b80601f0160208091040260200160405190810160405280929190818152602001828054610fa190612b80565b8015610fee5780601f10610fc357610100808354040283529160200191610fee565b820191906000526020600020905b815481529060010190602001808311610fd157829003601f168201915b505050505081526020016001820154815250509050919050565b611010611b3e565b73ffffffffffffffffffffffffffffffffffffffff1661102e610e65565b73ffffffffffffffffffffffffffffffffffffffff1614611084576040517f08c379a000000000000000000000000000000000000000000000000000000000815260040161107b90612a24565b60405180910390fd5b60036005811115611098576110976121ba565b5b600460009054906101000a900460ff1660058111156110ba576110b96121ba565b5b146110fa576040517f08c379a00000000000000000000000000000000000000000000000000000000081526004016110f190612582565b60405180910390fd5b60048060006101000a81548160ff0219169083600581111561111f5761111e6121ba565b5b02179055507f0a97a4ee45751e2abf3e4fc8946939630b11b371ea8ae39ccdc3056e98f5cc3f60036004604051611157929190612b28565b60405180910390a1565b600060149054906101000a900460ff1681565b61117c611b3e565b73ffffffffffffffffffffffffffffffffffffffff1661119a610e65565b73ffffffffffffffffffffffffffffffffffffffff16146111f0576040517f08c379a00000000000000000000000000000000000000000000000000000000081526004016111e790612a24565b60405180910390fd5b60006005811115611204576112036121ba565b5b600460009054906101000a900460ff166005811115611226576112256121ba565b5b14611266576040517f08c379a000000000000000000000000000000000000000000000000000000000815260040161125d90612c23565b60405180910390fd5b6001600460006101000a81548160ff0219169083600581111561128c5761128b6121ba565b5b02179055507f0a97a4ee45751e2abf3e4fc8946939630b11b371ea8ae39ccdc3056e98f5cc3f600060016040516112c4929190612b28565b60405180910390a1565b6112d6611b3e565b73ffffffffffffffffffffffffffffffffffffffff166112f4610e65565b73ffffffffffffffffffffffffffffffffffffffff161461134a576040517f08c379a000000000000000000000000000000000000000000000000000000000815260040161134190612a24565b60405180910390fd5b6001600581111561135e5761135d6121ba565b5b600460009054906101000a900460ff1660058111156113805761137f6121ba565b5b146113c0576040517f08c379a00000000000000000000000000000000000000000000000000000000081526004016113b790612cb5565b60405180910390fd5b6002600460006101000a81548160ff021916908360058111156113e6576113e56121ba565b5b02179055507f0a97a4ee45751e2abf3e4fc8946939630b11b371ea8ae39ccdc3056e98f5cc3f6001600260405161141e929190612b28565b60405180910390a1565b6060600360003373ffffffffffffffffffffffffffffffffffffffff1673ffffffffffffffffffffffffffffffffffffffff16815260200190815260200160002060000160009054906101000a900460ff166114b9576040517f08c379a00000000000000000000000000000000000000000000000000000000081526004016114b0906124f0565b60405180910390fd5b600280548060200260200160405190810160405280929190818152602001828054801561153b57602002820191906000526020600020905b8160009054906101000a900473ffffffffffffffffffffffffffffffffffffffff1673ffffffffffffffffffffffffffffffffffffffff16815260200190600101908083116114f1575b5050505050905090565b61154d611cef565b600360003373ffffffffffffffffffffffffffffffffffffffff1673ffffffffffffffffffffffffffffffffffffffff16815260200190815260200160002060000160009054906101000a900460ff166115dc576040517f08c379a00000000000000000000000000000000000000000000000000000000081526004016115d3906124f0565b60405180910390fd5b600360008373ffffffffffffffffffffffffffffffffffffffff1673ffffffffffffffffffffffffffffffffffffffff1681526020019081526020016000206040518060600160405290816000820160009054906101000a900460ff161515151581526020016000820160019054906101000a900460ff161515151581526020016001820154815250509050919050565b611675611b3e565b73ffffffffffffffffffffffffffffffffffffffff16611693610e65565b73ffffffffffffffffffffffffffffffffffffffff16146116e9576040517f08c379a00000000000000000000000000000000000000000000000000000000081526004016116e090612a24565b60405180910390fd5b600260058111156116fd576116fc6121ba565b5b600460009054906101000a900460ff16600581111561171f5761171e6121ba565b5b1461175f576040517f08c379a000000000000000000000000000000000000000000000000000000000815260040161175690612d47565b60405180910390fd5b6003600460006101000a81548160ff02191690836005811115611785576117846121ba565b5b02179055507f0a97a4ee45751e2abf3e4fc8946939630b11b371ea8ae39ccdc3056e98f5cc3f600260036040516117bd929190612b28565b60405180910390a1565b6117cf611b3e565b73ffffffffffffffffffffffffffffffffffffffff166117ed610e65565b73ffffffffffffffffffffffffffffffffffffffff1614611843576040517f08c379a000000000000000000000000000000000000000000000000000000000815260040161183a90612a24565b60405180910390fd5b600073ffffffffffffffffffffffffffffffffffffffff168173ffffffffffffffffffffffffffffffffffffffff16036118b2576040517f08c379a00000000000000000000000000000000000000000000000000000000081526004016118a990612dd9565b60405180910390fd5b6118bb81611b46565b50565b6118c6611b3e565b73ffffffffffffffffffffffffffffffffffffffff166118e4610e65565b73ffffffffffffffffffffffffffffffffffffffff161461193a576040517f08c379a000000000000000000000000000000000000000000000000000000000815260040161193190612a24565b60405180910390fd5b6000600581111561194e5761194d6121ba565b5b600460009054906101000a900460ff1660058111156119705761196f6121ba565b5b146119b0576040517f08c379a00000000000000000000000000000000000000000000000000000000081526004016119a790612e6b565b60405180910390fd5b60011515600360008373ffffffffffffffffffffffffffffffffffffffff1673ffffffffffffffffffffffffffffffffffffffff16815260200190815260200160002060000160009054906101000a900460ff16151503611a46576040517f08c379a0000000000000000000000000000000000000000000000000000000008152600401611a3d90612ed7565b60405180910390fd5b6001600360008373ffffffffffffffffffffffffffffffffffffffff1673ffffffffffffffffffffffffffffffffffffffff16815260200190815260200160002060000160006101000a81548160ff0219169083151502179055506002819080600181540180825580915050600190039060005260206000200160009091909190916101000a81548173ffffffffffffffffffffffffffffffffffffffff021916908373ffffffffffffffffffffffffffffffffffffffff1602179055507fb6be2187d059cc2a55fe29e0e503b566e1e0f8c8780096e185429350acffd3dd81604051611b33919061219f565b60405180910390a150565b600033905090565b60008060009054906101000a900473ffffffffffffffffffffffffffffffffffffffff169050816000806101000a81548173ffffffffffffffffffffffffffffffffffffffff021916908373ffffffffffffffffffffffffffffffffffffffff1602179055508173ffffffffffffffffffffffffffffffffffffffff168173ffffffffffffffffffffffffffffffffffffffff167f8be0079c531659141344cd1fd0a4f28419497f9722a3daafe3b4186f6b6457e060405160405180910390a35050565b604051806040016040528060608152602001600081525090565b828054611c3090612b80565b90600052602060002090601f016020900481019282611c525760008555611c99565b82601f10611c6b57805160ff1916838001178555611c99565b82800160010185558215611c99579182015b82811115611c98578251825591602001919060010190611c7d565b5b509050611ca69190611d14565b5090565b5080546000825590600052602060002090810190611cc89190611d14565b50565b5080546000825560020290600052602060002090810190611cec9190611d31565b50565b6040518060600160405280600015158152602001600015158152602001600081525090565b5b80821115611d2d576000816000905550600101611d15565b5090565b5b80821115611d5c5760008082016000611d4b9190611d60565b600182016000905550600201611d32565b5090565b508054611d6c90612b80565b6000825580601f10611d7e5750611d9d565b601f016020900490600052602060002090810190611d9c9190611d14565b5b50565b6000604051905090565b600080fd5b600080fd5b6000819050919050565b611dc781611db4565b8114611dd257600080fd5b50565b600081359050611de481611dbe565b92915050565b600060208284031215611e0057611dff611daa565b5b6000611e0e84828501611dd5565b91505092915050565b600080fd5b600080fd5b6000601f19601f8301169050919050565b7f4e487b7100000000000000000000000000000000000000000000000000000000600052604160045260246000fd5b611e6a82611e21565b810181811067ffffffffffffffff82111715611e8957611e88611e32565b5b80604052505050565b6000611e9c611da0565b9050611ea88282611e61565b919050565b600067ffffffffffffffff821115611ec857611ec7611e32565b5b611ed182611e21565b9050602081019050919050565b82818337600083830152505050565b6000611f00611efb84611ead565b611e92565b905082815260208101848484011115611f1c57611f1b611e1c565b5b611f27848285611ede565b509392505050565b600082601f830112611f4457611f43611e17565b5b8135611f54848260208601611eed565b91505092915050565b600060208284031215611f7357611f72611daa565b5b600082013567ffffffffffffffff811115611f9157611f90611daf565b5b611f9d84828501611f2f565b91505092915050565b600081519050919050565b600082825260208201905092915050565b6000819050602082019050919050565b600081519050919050565b600082825260208201905092915050565b60005b8381101561200c578082015181840152602081019050611ff1565b8381111561201b576000848401525b50505050565b600061202c82611fd2565b6120368185611fdd565b9350612046818560208601611fee565b61204f81611e21565b840191505092915050565b61206381611db4565b82525050565b600060408301600083015184820360008601526120868282612021565b915050602083015161209b602086018261205a565b508091505092915050565b60006120b28383612069565b905092915050565b6000602082019050919050565b60006120d282611fa6565b6120dc8185611fb1565b9350836020820285016120ee85611fc2565b8060005b8581101561212a578484038952815161210b85826120a6565b9450612116836120ba565b925060208a019950506001810190506120f2565b50829750879550505050505092915050565b6000602082019050818103600083015261215681846120c7565b905092915050565b600073ffffffffffffffffffffffffffffffffffffffff82169050919050565b60006121898261215e565b9050919050565b6121998161217e565b82525050565b60006020820190506121b46000830184612190565b92915050565b7f4e487b7100000000000000000000000000000000000000000000000000000000600052602160045260246000fd5b600681106121fa576121f96121ba565b5b50565b600081905061220b826121e9565b919050565b600061221b826121fd565b9050919050565b61222b81612210565b82525050565b60006020820190506122466000830184612222565b92915050565b600060408301600083015184820360008601526122698282612021565b915050602083015161227e602086018261205a565b508091505092915050565b600060208201905081810360008301526122a3818461224c565b905092915050565b600060ff82169050919050565b6122c1816122ab565b82525050565b60006020820190506122dc60008301846122b8565b92915050565b600081519050919050565b600082825260208201905092915050565b6000819050602082019050919050565b6123178161217e565b82525050565b6000612329838361230e565b60208301905092915050565b6000602082019050919050565b600061234d826122e2565b61235781856122ed565b9350612362836122fe565b8060005b8381101561239357815161237a888261231d565b975061238583612335565b925050600181019050612366565b5085935050505092915050565b600060208201905081810360008301526123ba8184612342565b905092915050565b6123cb8161217e565b81146123d657600080fd5b50565b6000813590506123e8816123c2565b92915050565b60006020828403121561240457612403611daa565b5b6000612412848285016123d9565b91505092915050565b60008115159050919050565b6124308161241b565b82525050565b60608201600082015161244c6000850182612427565b50602082015161245f6020850182612427565b506040820151612472604085018261205a565b50505050565b600060608201905061248d6000830184612436565b92915050565b600082825260208201905092915050565b7f596f75277265206e6f74206120766f7465720000000000000000000000000000600082015250565b60006124da601283612493565b91506124e5826124a4565b602082019050919050565b60006020820190508181036000830152612509816124cd565b9050919050565b7f566f74696e672073657373696f6e20686176656e74207374617274656420796560008201527f7400000000000000000000000000000000000000000000000000000000000000602082015250565b600061256c602183612493565b915061257782612510565b604082019050919050565b6000602082019050818103600083015261259b8161255f565b9050919050565b7f596f75206861766520616c726561647920766f74656400000000000000000000600082015250565b60006125d8601683612493565b91506125e3826125a2565b602082019050919050565b60006020820190508181036000830152612607816125cb565b9050919050565b7f50726f706f73616c206e6f7420666f756e640000000000000000000000000000600082015250565b6000612644601283612493565b915061264f8261260e565b602082019050919050565b6000602082019050818103600083015261267381612637565b9050919050565b7f4e487b7100000000000000000000000000000000000000000000000000000000600052603260045260246000fd5b7f4e487b7100000000000000000000000000000000000000000000000000000000600052601160045260246000fd5b60006126e382611db4565b91507fffffffffffffffffffffffffffffffffffffffffffffffffffffffffffffffff8203612715576127146126a9565b5b600182019050919050565b61272981611db4565b82525050565b60006040820190506127446000830185612190565b6127516020830184612720565b9392505050565b7f50726f706f73616c7320617265206e6f7420616c6c6f77656420796574000000600082015250565b600061278e601d83612493565b915061279982612758565b602082019050919050565b600060208201905081810360008301526127bd81612781565b9050919050565b50565b60006127d4600083612493565b91506127df826127c4565b600082019050919050565b60006020820190508181036000830152612803816127c7565b9050919050565b600061281582611fd2565b61281f8185612493565b935061282f818560208601611fee565b61283881611e21565b840191505092915050565b6000602082019050818103600083015261285d818461280a565b905092915050565b7f566f7573206e6520706f7576657a20706173206e65207269656e2070726f706f60008201527f7365720000000000000000000000000000000000000000000000000000000000602082015250565b60006128c1602383612493565b91506128cc82612865565b604082019050919050565b600060208201905081810360008301526128f0816128b4565b9050919050565b7f466f72207468697320766f74652c20796f752061726520616c6c6f776564207460008201527f6f206372656174652035302070726f706f73616c73206d617800000000000000602082015250565b6000612953603983612493565b915061295e826128f7565b604082019050919050565b6000602082019050818103600083015261298281612946565b9050919050565b600061299482611db4565b915061299f83611db4565b9250828210156129b2576129b16126a9565b5b828203905092915050565b60006020820190506129d26000830184612720565b92915050565b7f4f776e61626c653a2063616c6c6572206973206e6f7420746865206f776e6572600082015250565b6000612a0e602083612493565b9150612a19826129d8565b602082019050919050565b60006020820190508181036000830152612a3d81612a01565b9050919050565b6000604082019050612a596000830185612720565b612a666020830184612720565b9392505050565b7f43757272656e7420737461747573206973206e6f7420766f74696e672073657360008201527f73696f6e20656e64656400000000000000000000000000000000000000000000602082015250565b6000612ac9602a83612493565b9150612ad482612a6d565b604082019050919050565b60006020820190508181036000830152612af881612abc565b9050919050565b6000612b0a826122ab565b915060ff8203612b1d57612b1c6126a9565b5b600182019050919050565b6000604082019050612b3d6000830185612222565b612b4a6020830184612222565b9392505050565b7f4e487b7100000000000000000000000000000000000000000000000000000000600052602260045260246000fd5b60006002820490506001821680612b9857607f821691505b602082108103612bab57612baa612b51565b5b50919050565b7f5265676973746572696e672070726f706f73616c732063616e7420626520737460008201527f6172746564206e6f770000000000000000000000000000000000000000000000602082015250565b6000612c0d602983612493565b9150612c1882612bb1565b604082019050919050565b60006020820190508181036000830152612c3c81612c00565b9050919050565b7f5265676973746572696e672070726f706f73616c7320686176656e742073746160008201527f7274656420796574000000000000000000000000000000000000000000000000602082015250565b6000612c9f602883612493565b9150612caa82612c43565b604082019050919050565b60006020820190508181036000830152612cce81612c92565b9050919050565b7f5265676973746572696e672070726f706f73616c73207068617365206973206e60008201527f6f742066696e6973686564000000000000000000000000000000000000000000602082015250565b6000612d31602b83612493565b9150612d3c82612cd5565b604082019050919050565b60006020820190508181036000830152612d6081612d24565b9050919050565b7f4f776e61626c653a206e6577206f776e657220697320746865207a65726f206160008201527f6464726573730000000000000000000000000000000000000000000000000000602082015250565b6000612dc3602683612493565b9150612dce82612d67565b604082019050919050565b60006020820190508181036000830152612df281612db6565b9050919050565b7f566f7465727320726567697374726174696f6e206973206e6f74206f70656e2060008201527f7965740000000000000000000000000000000000000000000000000000000000602082015250565b6000612e55602383612493565b9150612e6082612df9565b604082019050919050565b60006020820190508181036000830152612e8481612e48565b9050919050565b7f416c726561647920726567697374657265640000000000000000000000000000600082015250565b6000612ec1601283612493565b9150612ecc82612e8b565b602082019050919050565b60006020820190508181036000830152612ef081612eb4565b905091905056fea2646970667358221220438d5c35381968f11898935c899a8756f1849ea9f73fa04b651399b69f03e6e964736f6c634300080d0033",
  "immutableReferences": {},
  "source": "// SPDX-License-Identifier: MIT\n\npragma solidity 0.8.13;\n\nimport \"@openzeppelin/contracts/access/Ownable.sol\";\n\n/**\n * @title Voting smart contract\n *\n * @author Jonacity\n *\n * @dev A simple voting system\n */\ncontract Voting is Ownable {\n\n    struct Voter {\n        bool isRegistered;\n        bool hasVoted;\n        uint votedProposalId;\n    }\n    struct Proposal {\n        string description;\n        uint voteCount;\n    }\n    enum WorkflowStatus {\n        RegisteringVoters,\n        ProposalsRegistrationStarted,\n        ProposalsRegistrationEnded,\n        VotingSessionStarted,\n        VotingSessionEnded,\n        VotesTallied\n    }\n\n    uint8 public winningProposalID;\n    uint8 maxProposals = 50;\n    Proposal[] proposalsArray;\n    address[] votersArray;\n    mapping (address => Voter) voters;\n    WorkflowStatus public workflowStatus;\n\n    event VoterRegistered(address voterAddress);\n    event ProposalRegistered(uint proposalId);\n    event Voted (address voter, uint proposalId);\n    event ResetVote(uint date, uint blockNumber);\n    event WorkflowStatusChange(WorkflowStatus previousStatus, WorkflowStatus newStatus);\n\n    /**\n     * @dev Constructor: the contract owner is added as voter\n     */\n    constructor() {\n        addVoter(msg.sender);\n    }\n\n    /**\n     * @dev Check if the sender is a registered voter\n     */\n    modifier onlyVoters() {\n        require(voters[msg.sender].isRegistered, \"You're not a voter\");\n        _;\n    }\n\n    // ::::::::::::: GETTERS ::::::::::::: //\n    /**\n     * @dev Get a voter from an address\n     *\n     * @param _addr Address of the user\n     *\n     * @return Voter Voter details\n     */\n    function getVoter(address _addr) external onlyVoters view returns (Voter memory) {\n        return voters[_addr];\n    }\n\n    /**\n     * @dev Get a proposal from an id\n     *\n     * @param _id Proposal id\n     *\n     * @return Proposal Proposal details\n     */\n    function getOneProposal(uint _id) external onlyVoters view returns (Proposal memory) {\n        return proposalsArray[_id];\n    }\n\n    /**\n     * @dev Get all proposals\n     *\n     * @return Proposal[] Added proposals list\n     */\n    function getProposals() external onlyVoters view returns (Proposal[] memory) {\n        return proposalsArray;\n    }\n\n    /**\n     * @dev Get all voters addresses\n     *\n     * @return address[] Registered voters addresses\n     */\n    function getVoters() external onlyVoters view returns (address[] memory) {\n        return votersArray;\n    }\n\n    // ::::::::::::: REGISTRATION ::::::::::::: //\n    /**\n     * @dev Register a voter and add his address into the votersArray\n     *\n     * @param _addr Voter address\n     */\n    function addVoter(address _addr) public onlyOwner {\n        require(workflowStatus == WorkflowStatus.RegisteringVoters, 'Voters registration is not open yet');\n        require(voters[_addr].isRegistered != true, 'Already registered');\n\n        voters[_addr].isRegistered = true;\n        votersArray.push(_addr);\n        emit VoterRegistered(_addr);\n    }\n\n    /* facultatif\n     * function deleteVoter(address _addr) external onlyOwner {\n     *   require(workflowStatus == WorkflowStatus.RegisteringVoters, 'Voters registration is not open yet');\n     *   require(voters[_addr].isRegistered == true, 'Not registered.');\n     *   voters[_addr].isRegistered = false;\n     *  emit VoterRegistered(_addr);\n    }*/\n\n    // ::::::::::::: PROPOSAL ::::::::::::: //\n    /**\n     * @dev Create a proposal\n     *\n     * @param _desc Proposal description\n     */\n    function addProposal(string memory _desc) external onlyVoters {\n        require(workflowStatus == WorkflowStatus.ProposalsRegistrationStarted, 'Proposals are not allowed yet');\n        require(keccak256(abi.encode(_desc)) != keccak256(abi.encode(\"\")), 'Vous ne pouvez pas ne rien proposer'); // facultatif\n        require(proposalsArray.length <= maxProposals, \"For this vote, you are allowed to create 50 proposals max\");\n        // voir que desc est different des autres\n\n        Proposal memory proposal;\n        proposal.description = _desc;\n        proposalsArray.push(proposal);\n        emit ProposalRegistered(proposalsArray.length-1);\n    }\n\n    // ::::::::::::: VOTE ::::::::::::: //\n    /**\n     * @dev Vote to a proposal\n     *\n     * @param _id Proposal id\n     */\n    function setVote( uint _id) external onlyVoters {\n        require(workflowStatus == WorkflowStatus.VotingSessionStarted, 'Voting session havent started yet');\n        require(voters[msg.sender].hasVoted != true, 'You have already voted');\n        require(_id <= proposalsArray.length, 'Proposal not found'); // pas oblig, et pas besoin du >0 car uint\n\n        voters[msg.sender].votedProposalId = _id;\n        voters[msg.sender].hasVoted = true;\n        proposalsArray[_id].voteCount++;\n        emit Voted(msg.sender, _id);\n    }\n\n    // ::::::::::::: STATE ::::::::::::: //\n    /* on pourrait factoriser tout a: par exemple:\n    *\n    *  modifier checkWorkflowStatus(uint  _num) {\n    *    require (workflowStatus=WorkflowStatus(uint(_num)-1, \"bad workflowstatus\");\n    *    require (num != 5, \"il faut lancer tally votes\");\n    *    _;\n    *  }\n    *\n    *  function setWorkflowStatus(WorkflowStatus _num) public checkWorkflowStatus( _num) onlyOwner {\n    *    WorkflowStatus old = workflowStatus;\n    *    workflowStatus = WorkflowStatus(_num);\n    *    emit WorkflowStatusChange(old, workflowStatus);\n    *   }\n    *\n    *  ou plus simplement:\n    *  function nextWorkflowStatus() onlyOwner{\n    *    require (uint(workflowStatus)!=4, \"il faut lancer tallyvotes\");\n    *    WorkflowStatus old = workflowStatus;\n    *    workflowStatus= WorkflowStatus(uint (workflowstatus) + 1);\n    *    emit WorkflowStatusChange(old, workflowStatus);\n    *  }\n    *\n    */\n\n    /**\n     * @dev Start the proposals registering\n     */\n    function startProposalsRegistering() external onlyOwner {\n        require(workflowStatus == WorkflowStatus.RegisteringVoters, 'Registering proposals cant be started now');\n\n        workflowStatus = WorkflowStatus.ProposalsRegistrationStarted;\n        emit WorkflowStatusChange(WorkflowStatus.RegisteringVoters, WorkflowStatus.ProposalsRegistrationStarted);\n    }\n\n    /**\n     * @dev End the proposals registering\n     */\n    function endProposalsRegistering() external onlyOwner {\n        require(workflowStatus == WorkflowStatus.ProposalsRegistrationStarted, 'Registering proposals havent started yet');\n\n        workflowStatus = WorkflowStatus.ProposalsRegistrationEnded;\n        emit WorkflowStatusChange(WorkflowStatus.ProposalsRegistrationStarted, WorkflowStatus.ProposalsRegistrationEnded);\n    }\n\n    /**\n     * @dev Start the voting session\n     */\n    function startVotingSession() external onlyOwner {\n        require(workflowStatus == WorkflowStatus.ProposalsRegistrationEnded, 'Registering proposals phase is not finished');\n\n        workflowStatus = WorkflowStatus.VotingSessionStarted;\n        emit WorkflowStatusChange(WorkflowStatus.ProposalsRegistrationEnded, WorkflowStatus.VotingSessionStarted);\n    }\n\n    /**\n     * @dev End the voting session\n     */\n    function endVotingSession() external onlyOwner {\n        require(workflowStatus == WorkflowStatus.VotingSessionStarted, 'Voting session havent started yet');\n\n        workflowStatus = WorkflowStatus.VotingSessionEnded;\n        emit WorkflowStatusChange(WorkflowStatus.VotingSessionStarted, WorkflowStatus.VotingSessionEnded);\n    }\n\n    /* function tallyVotesDraw() external onlyOwner {\n       require(workflowStatus == WorkflowStatus.VotingSessionEnded, \"Current status is not voting session ended\");\n        uint highestCount;\n        uint[5]memory winners; // egalite entre 5 personnes max\n        uint nbWinners;\n        for (uint i = 0; i < proposalsArray.length; i++) {\n            if (proposalsArray[i].voteCount == highestCount) {\n                winners[nbWinners]=i;\n                nbWinners++;\n            }\n            if (proposalsArray[i].voteCount > highestCount) {\n                delete winners;\n                winners[0]= i;\n                highestCount = proposalsArray[i].voteCount;\n                nbWinners=1;\n            }\n        }\n        for(uint j=0;j<nbWinners;j++){\n            winningProposalsID.push(winners[j]);\n            winningProposals.push(proposalsArray[winners[j]]);\n        }\n        workflowStatus = WorkflowStatus.VotesTallied;\n        emit WorkflowStatusChange(WorkflowStatus.VotingSessionEnded, WorkflowStatus.VotesTallied);\n    } */\n\n\n    /**\n     * @dev Tally the votes and set the proposal winner (winningProposalId)\n     */\n    function tallyVotes() external onlyOwner {\n            require(workflowStatus == WorkflowStatus.VotingSessionEnded, \"Current status is not voting session ended\");\n\n            uint8 _winningProposalId;\n            for (uint8 p = 0; p < proposalsArray.length; p++) {\n                if (proposalsArray[p].voteCount > proposalsArray[_winningProposalId].voteCount) {\n                    _winningProposalId = p;\n                }\n            }\n            winningProposalID = _winningProposalId;\n            workflowStatus = WorkflowStatus.VotesTallied;\n            emit WorkflowStatusChange(WorkflowStatus.VotingSessionEnded, WorkflowStatus.VotesTallied);\n        }\n\n    /**\n     * @dev Reset the voting system restoring all variables to initial values\n     */\n    function resetVote() public onlyOwner {\n        // require(workflowStatus == WorkflowStatus.VotesTallied, \"Votes not tallied\");\n\n        for (uint n = 0; n < votersArray.length; n ++) {\n            delete voters[votersArray[n]];\n        }\n        delete votersArray;\n        delete proposalsArray;\n        winningProposalID = 0;\n        workflowStatus = WorkflowStatus.RegisteringVoters;\n        addVoter(msg.sender);\n        emit ResetVote(block.timestamp, block.number);\n    }\n\n}",
  "sourcePath": "/Users/nathanlebas/Desktop/programming/Github repositories/DApp-Voting-React/contracts/voting.sol",
  "compiler": {
    "name": "solc",
    "version": "0.8.13+commit.abaa5c0e.Emscripten.clang"
  },
  "schemaVersion": "3.4.6",
  "updatedAt": "2022-04-21T08:14:59.372Z",
  "networkType": "ethereum",
  "devdoc": {
    "author": "Jonacity",
    "details": "A simple voting system",
    "kind": "dev",
    "methods": {
      "addProposal(string)": {
        "details": "Create a proposal",
        "params": {
          "_desc": "Proposal description"
        }
      },
      "addVoter(address)": {
        "details": "Register a voter and add his address into the votersArray",
        "params": {
          "_addr": "Voter address"
        }
      },
      "constructor": {
        "details": "Constructor: the contract owner is added as voter"
      },
      "endProposalsRegistering()": {
        "details": "End the proposals registering"
      },
      "endVotingSession()": {
        "details": "End the voting session"
      },
      "getOneProposal(uint256)": {
        "details": "Get a proposal from an id",
        "params": {
          "_id": "Proposal id"
        },
        "returns": {
          "_0": "Proposal Proposal details"
        }
      },
      "getProposals()": {
        "details": "Get all proposals",
        "returns": {
          "_0": "Proposal[] Added proposals list"
        }
      },
      "getVoter(address)": {
        "details": "Get a voter from an address",
        "params": {
          "_addr": "Address of the user"
        },
        "returns": {
          "_0": "Voter Voter details"
        }
      },
      "getVoters()": {
        "details": "Get all voters addresses",
        "returns": {
          "_0": "address[] Registered voters addresses"
        }
      },
      "owner()": {
        "details": "Returns the address of the current owner."
      },
      "renounceOwnership()": {
        "details": "Leaves the contract without owner. It will not be possible to call `onlyOwner` functions anymore. Can only be called by the current owner. NOTE: Renouncing ownership will leave the contract without an owner, thereby removing any functionality that is only available to the owner."
      },
      "resetVote()": {
        "details": "Reset the voting system restoring all variables to initial values"
      },
      "setVote(uint256)": {
        "details": "Vote to a proposal",
        "params": {
          "_id": "Proposal id"
        }
      },
      "startProposalsRegistering()": {
        "details": "Start the proposals registering"
      },
      "startVotingSession()": {
        "details": "Start the voting session"
      },
      "tallyVotes()": {
        "details": "Tally the votes and set the proposal winner (winningProposalId)"
      },
      "transferOwnership(address)": {
        "details": "Transfers ownership of the contract to a new account (`newOwner`). Can only be called by the current owner."
      }
    },
    "title": "Voting smart contract",
    "version": 1
  },
  "userdoc": {
    "kind": "user",
    "methods": {},
    "version": 1
  }
}